:100000000C942A000C9467070C948E070C94B50787
:100010000C9447000C9447000C9447000C94470044
:100020000C9447000C9447000C9447000C94470034
:100030000C94E3090C94170B0C943E0B0C94F00AEF
:100040000C9447000C9447000C9447000C94470014
:100050000C94470011241FBECFE5D8E0DEBFCDBF12
:1000600012E0A0E6B0E0E8EFF6E102C005900D92E4
:10007000A032B107D9F723E0A0E2B2E001C01D929F
:10008000AE34B207E1F70E94BF060C947A0B0C94D1
:10009000000080913B0281111CC0909139029111A6
:1000A00018C080913C02813019F480933902089580
:1000B000811117C088B38F7E88BB63E070E085E64E
:1000C00090E00E94BD0988B3806188BB109239021C
:1000D0000895813031F480913902811102C010926B
:1000E0003B0208950F931F93CF93DF93CDB7DEB7F5
:1000F000CF5FD1090FB6F894DEBF0FBECDBF8C0124
:10010000CE0101962FEFFC0111922A95E9F70E948A
:100110009C06853039F4B801CE0101960E94800A10
:1001200081E005C0813011F080E001C086E0C1505F
:10013000DF4F0FB6F894DEBF0FBECDBFDF91CF917A
:100140001F910F910895CF93DF93EC0188E690E023
:100150000E9481068130C9F4CE010E947200813074
:1001600029F011F0863099F48630B1F3CE010E9467
:100170000A0A8A3071F08BE790E00E948106813094
:1001800051F4CE010E94740AE1CF80E005C080E006
:1001900003C081E001C080E0DF91CF9108951F93FB
:1001A000CF93DF93EC0188EA90E00E9481068130D2
:1001B00099F5CE010E947200813029F011F086304D
:1001C00069F58630B1F3CE010E940A0A8A30E9F05F
:1001D00084EB90E00E948106813011F5CE010E94EF
:1001E000740AE1CFFE01E10FF11D808180538A3056
:1001F00050F084EB90E00E948106813099F4CE01AA
:100200000E94740A05C01F5F01C010E0193050F34E
:10021000193049F681E007C080E005C080E003C0E6
:1002200080E001C080E0DF91CF911F9108951F937E
:10023000CF93DF93EC010E94B70687EE90E00E9417
:1002400081068130A9F5CE010E947200813029F02B
:1002500011F0863079F58630B1F3CE010E940A0A9A
:100260008530E9F083EF90E00E948106813021F52E
:10027000CE010E94740AE1CFFE01E10FF11D8081E1
:1002800080538A3050F083EF90E00E9481068130E5
:10029000A9F4CE010E94740A05C01F5F01C010E0DE
:1002A000143050F3143049F60E94BB0681E007C0B9
:1002B00080E005C080E003C080E001C080E0DF9105
:1002C000CF911F910895CF93DF93EC014AE050E066
:1002D000BC0180E290E00E9498048130E9F52AE0B8
:1002E00030E040E050E060E070E080E090E00E94AC
:1002F000C2064AE050E0BE01665F7F4F80E390E0B7
:100300000E949804813051F52AE030E040E050E04E
:1003100060E070E080E090E00E94C206BE016C5E8A
:100320007F4F45E050E080E490E00E9498048130E7
:10033000B9F42AE030E040E050E060E070E080E0B6
:1003400090E00E94C2066AEA80E090E00E94A90361
:10035000813041F080E007C080E005C080E003C04C
:1003600080E001C081E0DF91CF910895EF92FF928C
:100370000F931F93CF93DF93CDB7DEB76E970FB672
:10038000F894DEBF0FBECDBF7C0186E291E00E94F3
:1003900081068130F1F58E010F5F1F4F8EE1F8016C
:1003A00011928A95E9F769E471E0C8010E94490A4F
:1003B000B701C8010E94490A6CE471E0C8010E94BB
:1003C000490AB701665F7F4FC8010E94490A6CE481
:1003D00071E0C8010E94490AB7016C5E7F4FC801F5
:1003E0000E94490A6BE471E0C8010E94490A88B37F
:1003F0008F7E88BBC8010E940A0A682F70E0C8017E
:100400000E94BD09813039F488B3806188BB81E0E6
:1004100003C080E001C080E06E960FB6F894DEBFA6
:100420000FBECDBFDF91CF911F910F91FF90EF9045
:100430000895CF93DF93CDB7DEB7A3970FB6F894A7
:10044000DEBF0FBECDBF80916000843009F0A6C032
:10045000FE0131968AE0DF011D928A95E9F78091CD
:100460003C02811150C08EE491E00E9481068130EF
:1004700009F047C02AE0CE014596FC01322F1192C7
:100480003A95E9F7FE013B96DF011D922A95E9F7BF
:10049000749625E0DF011D922A95E9F70E94A300DA
:1004A000813079F5CE010B960E94CF00813049F55D
:1004B000CE014F960E941701813019F560E272E07B
:1004C000CE0145960E94800A6AE272E0CE010B9648
:1004D0000E94800A64E372E0CE014F960E94800A77
:1004E00080E292E00E946301813059F410923A0256
:1004F00080933C028BE791E00E948106813009F4F1
:1005000041C080E052C080913A02813031F4809144
:100510003B02811102C010923C02CE0101960E9462
:1005200072008130C9F46AE172E0CE0101960E9446
:10053000160A8130A9F480913B02813049F48093FE
:100540003A0288E891E00E948106813049F508C0AE
:1005500010923C0281E029C0813011F0863011F503
:1005600080913902813071F480933B0280E292E005
:100570000E94B6018FEC91E00E9481068130A1F4C7
:100580001092390224E630E040E050E060E070E094
:1005900080E090E00E94C20681E007C085E005C0CF
:1005A00080E003C080E001C080E0A3960FB6F8941D
:1005B000DEBF0FBECDBFDF91CF910895CF93DF9304
:1005C000EC014AE050E0BC0180E290E00E9471053D
:1005D000813061F52AE030E040E050E060E070E01A
:1005E00080E090E00E94C2064AE050E0BE01665FF3
:1005F0007F4F80E390E00E9471058130C9F42AE0CA
:1006000030E040E050E060E070E080E090E00E9488
:10061000C206BE016C5E7F4F45E050E080E490E092
:100620000E947105813031F080E005C080E003C098
:1006300080E001C081E0DF91CF910895CF93DF93F7
:100640001F92CDB7DEB780916000843009F441C0BD
:100650000E949A038130A1F50E946C06813091F5C9
:100660000E947C09813081F581B38B7F81BB82B38D
:10067000846082BB88EE91E00E948106813031F572
:100680001982BE016F5F7F4F80E090E00E94E5031A
:100690008130F1F489818A3A19F010923C020BC042
:1006A00081E080933C028FEF91E00E94810680E21E
:1006B00092E00E94DE0284E08093600081E009C045
:1006C00080E007C080E005C080E003C080E001C09A
:1006D00080E00F90DF91CF9108950E941E0381303A
:1006E000C1F428EE33E040E050E060E070E080E0EC
:1006F00090E00E94C20681E00E945B0789E490E0DE
:100700000E9462078FB780688FBF0E9419028130F4
:10071000E1F380E008959A0122273770220F232FFA
:10072000221F330B31952065FC012083FB014083A0
:1007300081E0089580916100833051F00E94DC07D0
:10074000853029F083E08093610081E0089580E0A6
:1007500008951F93CF93DF9300D01F92CDB7DEB7DC
:10076000AC016B8390916100933011F519821A826C
:10077000BE016E5F7F4FCE0101960E948B03182F42
:100780008130C1F421E030E0AE014D5F5F4F6A81FE
:1007900089810E941609813079F42FE030E040E031
:1007A00050E060E070E080E090E00E94C20605C08A
:1007B00012E003C010E001C010E0812F0F900F90F5
:1007C0000F90DF91CF911F910895EF92FF921F93A9
:1007D000CF93DF9300D0CDB7DEB7AC01909161002D
:1007E000933021F56115710519F17B0119821A8287
:1007F000BE016E5F7F4FCE0101960E948B03182FC2
:100800008130C1F421E030E0A7016A8189810E9432
:100810006509813089F425E030E040E050E060E097
:1008200070E080E090E00E94C20607C012E005C0C0
:1008300014E003C010E001C010E0812F0F900F9072
:10084000DF91CF911F91FF90EF900895EF92FF926B
:100850001F93CF93DF9300D0CDB7DEB790916100A7
:100860009330F9F461157105F1F07B0190E1899FF6
:10087000A001112419821A82BE016E5F7F4FCE0142
:1008800001960E948B03182F813079F420E130E02B
:10089000A7016A8189810E941609813039F010E030
:1008A00005C012E003C014E001C010E0812F0F90DA
:1008B0000F90DF91CF911F91FF90EF900895EF92ED
:1008C000FF921F93CF93DF9300D0CDB7DEB7909107
:1008D00061009330F9F461157105F1F07B0190E14D
:1008E000899FA001112419821A82BE016E5F7F4F79
:1008F000CE0101960E948B03182F813079F420E1FC
:1009000030E0A7016A8189810E946509813039F050
:1009100010E005C012E003C014E001C010E0812F18
:100920000F900F90DF91CF911F91FF90EF9008955E
:100930006F927F928F929F92AF92BF92CF92DF92EF
:10094000EF92FF920F931F93CF93DF9300D0CDB719
:10095000DEB75C016B017A0180916100833009F0A0
:10096000A1C0672B09F4A0C019821A82A501BE019B
:100970006E5F7F4FCE0101960E948B03182F81304E
:1009800009F094C0450180EF882287E09822969470
:100990008794969487949694879496948794682CD9
:1009A0008A2D8F7051F190E1A92EA81AB12CEA146A
:1009B000FB0458F49701A6016A8189810E941609F7
:1009C000813009F47CC010E07AC09501A6016A81EB
:1009D00089810E941609813009F06AC0EA18FB0873
:1009E0002FE030E040E050E060E070E080E090E038
:1009F0000E94C2067724739403C0712CA12CB12CE1
:100A0000C701929582958F7089279F708927082F3B
:100A10001CC00150B6016A0D7B1D872D860D0E94FA
:100A20002604813009F046C0739480E1E81AF10889
:100A300080E1A80EB11C2FE030E040E050E060E023
:100A400070E080E090E00E94C206101614F3E114FA
:100A5000F104A9F1A401470D511D42955295507F13
:100A60005427407F5427BE016E5F7F4FCE01019611
:100A70000E948B03182F8130F9F4A6014A0D5B1DEB
:100A800097016A8189810E9416098130B9F42FE0AB
:100A900030E040E050E060E070E080E090E00E94F4
:100AA000C2060DC012E00BC014E009C010E007C080
:100AB00010E005C010E003C010E001C010E0812F7D
:100AC0000F900F90DF91CF911F910F91FF90EF90BA
:100AD000DF90CF90BF90AF909F908F907F906F905E
:100AE00008956F927F928F929F92AF92BF92CF9212
:100AF000DF92EF92FF920F931F93CF93DF9300D07B
:100B0000CDB7DEB75C016B017A0180916100833063
:100B100009F084C0672B09F483C019821A82A501E9
:100B2000BE016E5F7F4FCE0101960E948B03182F8E
:100B3000813009F077C0450180EF882287E0982254
:100B40009694879496948794969487949694879491
:100B5000782C8A2D8F70F9F090E1A92EA81AB12C6B
:100B6000EA14FB0458F49701A6016A8189810E9466
:100B70006509813009F45DC010E05BC09501A601F4
:100B80006A8189810E946509813009F04DC0EA18A7
:100B9000FB0801E003C000E0A12CB12CC701929535
:100BA00082958F7089279F70892711C0B6016A0DC1
:100BB0007B1D802F870D0E945F048130B9F50F5F88
:100BC00080E1E81AF10880E1A80EB11C862D6624A8
:100BD0006A94680E8111EACFE114F10451F1A40185
:100BE000400F511D42955295507F5427407F542706
:100BF000BE016E5F7F4FCE0101960E948B03182FBE
:100C00008130B1F4A6014A0D5B1D97016A8189818B
:100C10000E946509813069F010E00BC012E009C044
:100C200014E007C010E005C010E003C010E001C0F0
:100C300010E0812F0F900F90DF91CF911F910F91B6
:100C4000FF90EF90DF90CF90BF90AF909F908F90EC
:100C50007F906F900895CF93DF93C0913E02D0E0D4
:100C60000E94EE0AC15CDD4F888390913E02E92F1D
:100C7000F0E0E15CFD4F80818D3071F40E94A70AA5
:100C8000E0913E02F0E0E15CFD4F108210923E02E6
:100C900081E080933D021DC0883051F4992341F0DA
:100CA0000E94A70A80913E02815080933E0211C0AB
:100CB000883079F090913E03913021F48AE20E94CD
:100CC000A70A02C00E94A70A80913E028F5F80930C
:100CD0003E02DF91CF91089580916200833081F0D0
:100CE0000E94910A813011F0873049F48BE296E03E
:100CF0000E94D90A83E08093620081E0089580E039
:100D00000895CF93DF93009781F020916200223005
:100D100079F0EC010E940A0A682F70E0CE010E946F
:100D2000B20A813021F020E003C024E001C021E0BC
:100D3000822FDF91CF910895BC01892BA1F0809182
:100D40006200823099F080913D02813071F41092FE
:100D50003D028FE392E00E94800A8FE392E00E94BE
:100D6000740A85E0089584E0089581E0089581E0A3
:100D700080933E03089510923E0381E008950E94FF
:100D80006D03FFCF2F923F924F925F926F927F92AF
:100D90008F929F92AF92BF92CF92DF92EF92FF928B
:100DA0000F931F93CF93DF9300D000D000D0CDB727
:100DB000DEB7222E332E442E552E662E79838A835B
:100DC0009B83912C1D821C82B0E0F0E0E0E0712C4E
:100DD000812C44C02D2D3E2D4F2D502F612F7A2F69
:100DE0008B2D9C2DA1E00E94650BD22EE32EF42EBC
:100DF000052F162FA72FB82EC92E0AC0D12CE12CF3
:100E0000F12C00E010E0A0E0B12CC12CAD80EE830D
:100E10002D2D3E2D4F2D502F612F7A2F8B2D9C2D58
:100E20002B38310541055105610571058105910595
:100E300089F280F2EE81292D3A2D4C815B2F6F2FA4
:100E40007E2F872D982DA1E00E94650B922E3D8369
:100E50004C83B52FF62FE72F782E892E292D3D8133
:100E60004C815B2F6F2F7E2F872D982DA22CB32CBA
:100E7000C42CD52CE62CF9800A811B810E94710BB1
:100E800008F4BCCF26960FB6F894DEBF0FBECDBFD8
:100E9000DF91CF911F910F91FF90EF90DF90CF9056
:100EA000BF90AF909F908F907F906F905F904F908A
:100EB0003F902F9008959BB790649BBF95B7892B67
:100EC00085BF0895909344038093430308951F9230
:100ED0000F920FB60F9211242F933F934F935F936E
:100EE0006F937F938F939F93AF93BF93EF93FF93F2
:100EF000E0914303F09144030995FF91EF91BF9175
:100F0000AF919F918F917F916F915F914F913F91A1
:100F10002F910F900FBE0F901F9018951F920F9258
:100F20000FB60F9211242F933F934F935F936F93BC
:100F30007F938F939F93AF93BF93EF93FF93E09132
:100F40004103F09142030995FF91EF91BF91AF9159
:100F50009F918F917F916F915F914F913F912F91D1
:100F60000F900FBE0F901F9018951F920F920FB603
:100F70000F9211242F933F934F935F936F937F931F
:100F80008F939F93AF93BF93EF93FF93E0913F03B2
:100F9000F09140030995FF91EF91BF91AF919F911F
:100FA0008F917F916F915F914F913F912F910F9012
:100FB0000FBE0F901F90189580916300863049F006
:100FC00082E081B989E080B986E08093630081E0A6
:100FD000089587E0089580916300863059F484EA8B
:100FE00086BF06B607FEFDCF81B1887F883021F02D
:100FF00080E0089585E0089581E008959091630070
:10100000963029F5623028F588232CF190E0880F7E
:10101000991F682B63B984E886BF06B607FEFDCF2B
:1010200081B1887F883359F028F48831B1F080325B
:1010300041F00BC0803489F0883429F006C088E381
:10104000089580E2089588E4089580E0089585E099
:10105000089582E0089583E0089581E008958091E5
:101060006300863059F484EA86BF06B607FEFDCFDA
:1010700081B1887F803121F080E0089585E0089576
:1010800081E0089580916300863039F484E986BF59
:1010900006B604FCFDCF81E0089585E008959091A7
:1010A0006300963069F483B984E886BF06B607FE0C
:1010B000FDCF81B1887F883229F0803329F40895EB
:1010C00085E0089588E2089580E00895FC019091FC
:1010D0006300963079F4309779F084EC86BF06B6D9
:1010E00007FEFDCF81B1887F803541F483B18083D5
:1010F00081E0089585E0089584E0089580E00895F2
:10110000FC0190916300963079F4309779F084E88F
:1011100086BF06B607FEFDCF81B1887F883541F4D2
:1011200083B1808381E0089585E0089584E0089587
:1011300080E008957F928F929F92AF92BF92CF925C
:10114000DF92EF92FF920F931F93CF93DF93782E4E
:10115000EB017A01690180916300863009F047C094
:10116000209709F446C0232B09F445C077200CF4DE
:1011700044C00E94EB07882309F44AC060E0872D31
:101180000E94FE078130D9F50BC04E018FEF881AFF
:10119000980A88810E944F0875018823C9F1E401EB
:1011A000570181E0A81AB108EF2879F70E942F08AB
:1011B000813039F561E0872D0E94FE07813019F5F5
:1011C00008C0E6012196C6010E9466088130E9F454
:1011D0006E0101501109A9F7C6010E9480088130F3
:1011E000B1F40E944208813099F080E011C085E09E
:1011F0000FC084E00DC084E00BC083E009C080E034
:1012000007C080E005C080E003C080E001C080E04E
:10121000DF91CF911F910F91FF90EF90DF90CF90D2
:10122000BF90AF909F908F907F900895BF92CF9284
:10123000DF92EF92FF920F931F93CF93DF93182FBC
:10124000062FEA01790180916300863059F52097D5
:1012500059F111235CF10E94EB07882361F160E0F2
:10126000812F0E94FE07B82E81E0B81221C0802F86
:101270000E944F0881110CC01EC06E018FEFC81A6A
:10128000D80A88810E944F0878018823A1F0E601DE
:10129000870101501109EF2881F70E94420881114E
:1012A00009C009C085E007C084E005C083E003C031
:1012B00080E001C08B2DDF91CF911F910F91FF90A6
:1012C000EF90DF90CF90BF9008950F931F93CF932F
:1012D000DF931F92CDB7DEB7698389019A0141E0A0
:1012E00050E0BE016F5F7F4F0E949A080F90DF9120
:1012F000CF911F910F91089580916400873031F153
:1013000087B3806B87BB87B38F7B87BB88B38061D4
:1013100088BB8DB180618DB98DB18F7D8DB98DB157
:10132000877F8DB98DB18B7F8DB98DB18E7F8DB952
:101330008DB18D7F8DB98DB181608DB98DB1806496
:101340008DB987E08093640081E0089588E0089576
:10135000CF93DF931F92CDB7DEB7909164009730A3
:1013600039F48FB9779BFECF8FB1898381E001C0BB
:1013700086E00F90DF91CF910895EF92FF920F9347
:101380001F93CF93209164002730A1F48B017C013F
:10139000C0E009C0F701E20FF31F80810E94A80995
:1013A000813051F4CF5F2C2F30E02017310790F3BC
:1013B00081E003C086E001C080E0CF911F910F91D2
:1013C000FF90EF9008951F920F920FB60F92112485
:1013D0002F933F934F935F936F937F938F939F933D
:1013E000AF93BF93EF93FF93E0914503F0914603D2
:1013F0000995FF91EF91BF91AF919F918F917F914F
:101400006F915F914F913F912F910F900FBE0F9071
:101410001F901895AC0180E001C08F5FFA01E80FC2
:10142000F11D20812111F9CF8F5F0895FF920F9355
:101430001F93CF93DF938C01EB010E940A0AF82ED1
:10144000CE010E940A0A8F15B8F0F816B8F030E005
:1014500009C0FE01E80FF91F8081821788F0281764
:1014600088F03F5F832F90E0F801E80FF91F20819B
:101470002111EFCF81E007C082E005C083E003C007
:1014800082E001C083E0DF91CF911F910F91FF9027
:101490000895FF920F931F93CF93DF93EC018B017D
:1014A000CB010E940A0AF82ECE010E940A0A81503E
:1014B00090E00BC0280F311DFE01E20FF31FD80191
:1014C000A90FB11D2C9120839F5F292F30E04F2D54
:1014D00050E0415051094217530764F7DF91CF9113
:1014E0001F910F91FF900895AC0190E002C09F5FA3
:1014F0001082FA01E90FF11D20812111F8CF089522
:10150000DC0190E005C0FB01E20FF31F40839F5F09
:10151000292F30E0FD01E20FF31F40814111F3CF8D
:10152000089580914703813081F010BC87E689B926
:1015300082E08BB988E18AB980E880BD80B5866891
:1015400080BD81E080934703089587E008959091DE
:101550004703992329F05D9BFECF8CB981E0089564
:1015600086E00895EF92FF920F931F93CF93DF933E
:1015700020914703222399F08B017C01C0E0D0E049
:1015800009C0F701EC0FFD1F80810E94A70A81307E
:1015900041F42196C017D107A0F381E003C086E093
:1015A00001C080E0DF91CF911F910F91FF90EF90EC
:1015B00008959C0190914703992361F0211531050D
:1015C00059F08AB180688AB930934B0320934A035B
:1015D00081E0089586E0089585E008958CB108952E
:1015E0001F920F920FB60F9211242F933F934F9398
:1015F0005F936F937F938F939F93AF93BF93EF937B
:10160000FF93E0914C03F0914D030995FF91EF9109
:10161000BF91AF919F918F917F916F915F914F910A
:101620003F912F910F900FBE0F901F9018951F9212
:101630000F920FB60F9211242F933F934F935F9306
:101640006F937F938F939F93AF93BF93EF93FF938A
:10165000E0914A03F0914B030995FF91EF91BF91FF
:10166000AF919F918F917F916F915F914F913F913A
:101670002F910F900FBE0F901F9018951F920F92F1
:101680000FB60F9211242F933F934F935F936F9355
:101690007F938F939F93AF93BF93EF93FF93E091CB
:1016A0004803F09149030995FF91EF91BF91AF91E4
:1016B0009F918F917F916F915F914F913F912F916A
:1016C0000F900FBE0F901F9018950024A7FD009457
:1016D0002A0F301D401D501D601D701D801D901D66
:1016E00008952A153B054C055D056E057F058007AD
:0816F00091070895F894FFCF63
:1016F80005020205062A2A004361726420486F6CBD
:10170800646572204E616D653A20000A496E766103
:101718006C6964204E616D652C204E616D65207387
:10172800686F756C64206265203920636861726136
:1017380063746572730D0A000A4361726420504134
:101748004E3A20000A496E76616C69642050414E19
:101758002C2050414E2073686F756C6420626520A0
:1017680039206E756D6572696320636861726163A3
:10177800746572730D0A000A436172642050494E01
:101788003A20000A496E76616C69642050494E2CF3
:101798002050494E2073686F756C64206265203450
:1017A800206E756D65726963206368617261637428
:1017B8006572730D0A004461746120697320626563
:1017C800696E672073656E7420746F207468652075
:1017D80041544D2E2E2E0D0A002300232D00507249
:1017E8006F6772616D6D696E67204D6F64650D0A74
:1017F800456E7465722074686520466F6C6C6F77EF
:10180800696E6720446174610D0A000A5553455298
:10181800204D6F64650D0A004341524420697320CE
:1018280042757379204E6F772C200D50726F677256
:10183800616D6D696E67204D6F64652077696C6CAA
:1018480020737461727420616674657220637572A6
:1018580072656E742050726F636573730D0A00446D
:10186800617461205375636365737366756C6C7915
:101878002053656E740D0A0043415244205465722A
:101888006D696E616C2057696E646F770D0A005937
:101898006F7520617265206E6F7720696E205573B1
:1018A8006572204D6F64650D0A0041444D494E0034
:00000001FF
