:100000000C9431000C94EF140C9416150C943D15BF
:100010000C944D170C9472170C94DE160C94031765
:100020000C9428170C94B9160C9494160C946F1613
:100030000C9492190C94161E0C943D1E0C94EF1DFA
:100040000C94CB110C944E000C944E000C944E006A
:100050000C944E00A21CAE1CA51CA81CAB1CA21C20
:10006000A21C11241FBECFE5D8E0DEBFCDBF15E036
:10007000A0E6B0E0E8E1F2E402C005900D92AE36F1
:10008000B107D9F726E0AEE6B5E001C01D92A93E62
:10009000B207E1F70E942A110C940A210C94000087
:1000A0000F931F93CF93DF93CDB7DEB72A970FB689
:1000B000F894DEBF0FBECDBF8C01FE0131968AE001
:1000C000DF011D928A95E9F710927B051FC090E031
:1000D00001968295880F807E4AE050E0BE016F5FF6
:1000E0007F4F90E00E94C80C8130C9F4B801CE0166
:1000F00001960E94C519813021F480917B0590E022
:1001000010C080917B058F5F80937B0580917B057C
:10011000909189058917D8F28FEF9FEF02C080E098
:1001200090E02A960FB6F894DEBF0FBECDBFDF91E8
:10013000CF911F910F910895CF93DF931F92CDB769
:10014000DEB7198281E08093B6050E94120F60E04D
:1001500080E00E94B30E8130F9F484EE90E00E94BA
:10016000FE0E8130D9F4CE0101960E946D0F8130D0
:1001700059F460E00E94B30E813091F4898190E0DF
:100180000E94400F813071F485EF90E00E94FE0ED6
:10019000813051F080E009C080E007C080E005C0F8
:1001A00080E003C080E001C081E00F90DF91CF913B
:1001B00008951F93CF93DF93CDB7DEB72A970FB67D
:1001C000F894DEBF0FBECDBFFE0131968AE0DF019D
:1001D0001D928A95E9F710927B051CC090E001966C
:1001E0008295880F807E4AE050E0BE016F5F7F4FAE
:1001F00090E00E94C80C813081F567EA75E0CE017D
:1002000001960E94C519813069F080917B058F5F4E
:1002100080937B0580917B05909189058917F0F289
:1002200080E001C081E08130D1F410917B0512950E
:10023000110F107E105D6BE875E0CE0101960E94F3
:10024000041A48E050E065E975E0812F90E00E94D3
:10025000C80C813031F080E005C080E003C08BE045
:1002600001C08AE02A960FB6F894DEBF0FBECDBF5C
:10027000DF91CF911F910895CF93DF93EC0180918F
:10028000790590E081599A4F0E94950D863009F0CA
:1002900074C060917905862F90E0FC01E159FA4F16
:1002A00020812D3309F5FC01E159FA4F108210929B
:1002B000790566E081E00E94B30E813009F05FC0ED
:1002C00084E091E00E94FE0E813009F05AC066E0A1
:1002D0000E94B30E813009F056C0BE018FE695E052
:1002E0000E94041A87E05AC02D32B1F4EFEFE60FF6
:1002F000E0937905F0E0E159FA4F10826B5F81E0FD
:100300000E94B30E813009F040C080E20E94CE0E00
:100310008130E9F180E042C06A3049F16A5F81E0F2
:100320000E94B30E8130A9F580917A0581110BC02E
:10033000E0917905F0E0E159FA4F80810E94CE0EFC
:10034000813049F50DC080917905843030F48AE21E
:100350000E94CE0E813009F503C08150809379054B
:10036000809179058F5F8093790581E017C0FC014A
:10037000E159FA4F108281E011C081E00FC080E0A6
:100380000DC080E00BC080E009C080E007C081E0C4
:1003900005C080E003C080E001C080E0DF91CF9124
:1003A00008954F925F926F927F928F929F92AF9239
:1003B000BF92CF92DF92EF92FF921F93CF93DF9382
:1003C000CDB7DEB728970FB6F894DEBF0FBECDBF0E
:1003D000FE01319688E0DF011D928A95E9F785E9F3
:1003E00095E00E94631A2B013C018CE795E00E9486
:1003F000631A4B015C01CE0101960E94F819CE01EF
:1004000001960E943C01873009F0CFC0CE010196D1
:100410000E94B919883019F48D818E3259F00E94EA
:10042000120F60E080E00E94B30E80E690E00E9430
:10043000FE0EE1CFCE0101960E94631A6B017C0192
:100440009B01AC01C501B4010E94D11E88230CF5AB
:1004500067E071E084E191E00E94170F24EF31E042
:1004600040E050E060E070E080E090E00E94F21137
:100470000E94120F60E080E00E94B30E813009F00C
:100480009FC080E690E00E94FE0E813009F48DC08E
:1004900099C062E271E082E391E00E94170FA70128
:1004A0009601C301B2010E94D11E88230CF560E4BD
:1004B00071E08BE491E00E94170F24EF31E040E0FF
:1004C00050E060E070E080E090E00E94F2110E9455
:1004D000120F60E080E00E94B30E813009F074C01A
:1004E00080E690E00E94FE0E813009F45EC06EC08E
:1004F0006AE571E088E691E00E94170F40E064E64B
:1005000080E00E94261028EE33E040E050E060E0FA
:1005100070E080E090E00E94F21180E00E94B70F4E
:100520001092B805A7019601C301B2010E94641E92
:100530006B017C0185E995E00E94F81945E955E0D9
:10054000C701B6010E94E11A80917B058295880F50
:10055000807E10E3180F85E995E00E94B919482FB5
:1005600050E065E975E0812F90E00E94EF0B81304B
:1005700079F565E975E086E791E00E94170F28EEAE
:1005800033E040E050E060E070E080E090E00E9406
:10059000F21161E082E10E94791365E871E084E97B
:1005A00091E00E94170F81E014C028EC30E040E099
:1005B00050E060E070E080E090E00E94F2111BCF1C
:1005C00080E007C080E005C080E003C080E001C09B
:1005D00080E028960FB6F894DEBF0FBECDBFDF9146
:1005E000CF911F91FF90EF90DF90CF90BF90AF9091
:1005F0009F908F907F906F905F904F9008951F9382
:10060000CF93DF9300D000D01F92CDB7DEB7FE01AD
:10061000319685E0DF011D928A95E9F781E08093AC
:100620007A0510E0CE0101960E94F819CE010196DC
:100630000E943C01873009F05BC01F5F61EB75E0F1
:10064000CE0101960E94C519813009F447C01330CC
:1006500031F565E071E082EA91E00E94170F28EE23
:1006600033E040E050E060E070E080E090E00E9425
:10067000F21161EB71E082EC91E00E94170F28EE1D
:1006800033E040E050E060E070E080E090E00E9405
:10069000F21161E082E10E94791389E037C061EDD7
:1006A00071E082EA91E00E94170F24EF31E040E010
:1006B00050E060E070E080E090E00E94F2110E9463
:1006C000120F60E080E00E94B30E8130E1F48EED05
:1006D00091E00E94FE0E813059F017C062E271E095
:1006E00082E391E00E94170F10927A0588E00EC015
:1006F00028EC30E040E050E060E070E080E090E026
:100700000E94F2118FCF80E001C080E00F900F9027
:100710000F900F900F90DF91CF911F9108950E943D
:10072000120F60E080E00E94B30E813009F050C0EB
:100730000E94D9008B3061F46DEE71E08DEF91E095
:100740000E94170F61E082E10E9479138BE0089507
:100750008EED91E00E94FE0E8130E1F50E94FF02D5
:100760008930D1F18830D1F56EE072E08BE192E012
:100770000E94170F28EE33E040E050E060E070E0A8
:1007800080E090E00E94F21165E975E086E791E073
:100790000E94170F28EE33E040E050E060E070E088
:1007A00080E090E00E94F2110E94120F60E080E071
:1007B0000E94B30E8130A1F480E690E00E94FE0E0C
:1007C000813081F40E94D101813069F080E0089588
:1007D00080E0089580E0089589E0089580E008951C
:1007E00080E0089580E00895AC0120E091E00AC027
:1007F000FB01E90FF11D8081FA01E20FF11D8083F9
:100800002F5F9F5F9A30A0F3FA01E20FF11D108273
:1008100020E09BE00AC0FB01E90FF11D8081FA0195
:10082000E20FF11D82872F5F9F5F9431A0F3FA01E1
:10083000E20FF11D128690E085E10AC0FB01E80F8E
:10084000F11D2081FA01E90FF11D248B9F5F8F5F5D
:100850008931A0F3FA01E90FF11D148A81E00895AE
:100860001F93CF93DF93CDB7DEB7DA950FB6F89429
:10087000DEBF0FBECDBF81E08093B8051982FE01B7
:1008800032968FEFDF011D928A95E9F767E272E0F9
:1008900086E392E00E94170F0FC080E00E946F0A6B
:1008A000813009F085C0BE016F5F7F4F80E00E94FC
:1008B0005D0A813009F07EC08981882371F367E485
:1008C00072E086E592E00E94170F60E082E10E94EC
:1008D0007913CE0102960E94F8193DC06CE170E0D8
:1008E000CE0102960E946519813009F065C08A81A7
:1008F0008A3289F58B818A3271F561E082E10E944A
:10090000791365E672E082E092E00E94170F28EE0C
:1009100033E040E050E060E070E080E090E00E9472
:10092000F21161EB71E082EC91E00E94170F28EE6A
:1009300033E040E050E060E070E080E090E00E9452
:10094000F2111092B80565E871E084E991E00E9427
:10095000170F11E034C08A81833209F0BFCFBE0186
:100960006E5F7F4F8DE995E00E94F403182F813070
:1009700029F58DE995E00E948F038B3011F08930C5
:1009800099F428EE33E040E050E060E070E080E071
:1009900090E00E94F2111092B80565E871E084E9D8
:1009A00091E00E94170F0BC0813049F010E007C0A2
:1009B00010E005C010E003C010E001C010E0812F7E
:1009C000D3950FB6F894DEBF0FBECDBFDF91CF91A8
:1009D0001F91089580916E00843009F4BDC00E947B
:1009E0007C0E813009F097C00E94D710813009F049
:1009F00094C00E94F10A813009F091C00E94371919
:100A0000813009F08EC00E94820D813009F08BC0C8
:100A10000E945E0F813009F088C00E94A60F8130CD
:100A200009F085C00E944A0A813009F082C08EE434
:100A300095E00E94FE0E813009F07DC080E495E0D3
:100A40000E94EC10813009F078C06AE875E080E01F
:100A500090E00E943C0B813009F071C02AE030E048
:100A600040E050E060E070E080E090E00E94F21131
:100A700080918A058A3AF9F010926D0088E595E038
:100A80000E94B919482F50E068E575E08BE090E0CE
:100A90000E94EF0B813009F054C060E772E081E8FA
:100AA00092E00E94170F82E992E00E94EC108130E0
:100AB00009F049C02BC081E080936D0048E050E010
:100AC0006CE775E083E090E00E94C80C8130E9F5A6
:100AD00069E875E082E090E00E943C0B8130B9F556
:100AE00045E050E064E875E08BE090E00E94C80CBF
:100AF000813079F565E871E084E991E00E94170F93
:100B000085EA92E00E94EC10813029F584E0809320
:100B10006E0081E0089580E0089580E0089580E00F
:100B2000089580E0089580E0089580E0089580E0D1
:100B3000089580E0089580E0089580E0089580E0C1
:100B4000089580E0089580E0089580E0089580E0B1
:100B5000089580E0089580E008950F931F93CF9348
:100B6000DF93CDB7DEB7CF5FD1090FB6F894DEBF04
:100B70000FBECDBF8C01CE0101962FEFFC0111926B
:100B80002A95E9F70E940711853039F4B801CE01A2
:100B900001960E94041A81E005C0813011F080E0C6
:100BA00001C086E0C150DF4F0FB6F894DEBF0FBE24
:100BB000CDBFDF91CF911F910F910895CF93DF9318
:100BC000EC0181EB92E00E94EC108130C1F4CE0187
:100BD0000E94AD05813029F011F0863091F4863005
:100BE000B1F38981882379F0CE010E94F8198FEB47
:100BF00092E00E94EC10813021F380E005C080E09B
:100C000003C080E001C081E0DF91CF910895CF93D0
:100C1000DF93EC0189EE92E00E94EC10813069F5DF
:100C2000CE010E94AD05813099F011F0863039F582
:100C30008630B1F380E00DC0FE01E80FF11D908118
:100C400020ED290F2A3010F09E3229F48F5F01C069
:100C500080E0873088F3873031F4FE01E80FF11D22
:100C60008081882371F087EF92E00E94EC10813040
:100C700051F4CE010E94F819CDCF80E005C080E08C
:100C800003C081E001C080E0DF91CF9108951F9300
:100C9000CF93DF93EC0181E393E00E94EC1081306D
:100CA00099F5CE010E94AD05813029F011F0863012
:100CB00069F58630B1F3CE010E94B9198A30E9F0A6
:100CC00088E393E00E94EC10813011F5CE010E9480
:100CD000F819E1CFFE01E10FF11D808180538A30C8
:100CE00050F088E393E00E94EC10813099F4CE013B
:100CF0000E94F81905C01F5F01C010E0193050F3C1
:100D0000193049F681E007C080E005C080E003C0EB
:100D100080E001C080E0DF91CF911F910895CF93D3
:100D2000DF93EC018AE693E00E94EC10813069F5D4
:100D3000CE010E94AD05813099F011F0863039F571
:100D40008630B1F380E00DC0FE01E80FF11D908107
:100D500020ED290F2A3010F09E3229F48F5F01C058
:100D600080E0873088F3873031F4FE01E80FF11D11
:100D70008081882371F087EF92E00E94EC1081302F
:100D800051F4CE010E94F819CDCF80E005C080E07B
:100D900003C081E001C080E0DF91CF910895EF9220
:100DA000FF920F931F93CF93DF93CDB7DEB7649776
:100DB0000FB6F894DEBF0FBECDBF8E010F5F1F4F81
:100DC0008AE0D8011D928A95E9F7FE013B9688E0FA
:100DD000DF011D928A95E9F71C8A1B8A8BE895E052
:100DE0000E94F81985E995E00E94F819C8010E944F
:100DF0004706182F813009F0AEC0CE0101960E943F
:100E000050007C010196A9F085E793E00E94EC1068
:100E1000CE0143960E94DE058B89893761F08935C2
:100E200061F08E3609F4A4C08E3409F4A1C000E04C
:100E300005C000E003C001E001C001E06BE875E01F
:100E4000CE0101960E94041ACE010B960E948F06D5
:100E5000182F813009F081C065E975E0CE010B964D
:100E60000E94041A01113CC080918905282F30E0AE
:100E70002F5F3F4FF22EFF0CFF0CFF0CFF0CFF0CFF
:100E80008295880F807E00E3080F8BE895E00E9432
:100E9000B919482F50E06BE875E08F2D90E00E9463
:100EA000EF0B813009F05BC085E995E00E94B9192C
:100EB000482F50E065E975E0802F90E00E94EF0B2D
:100EC000813009F04EC0609189056F5F609389059C
:100ED00082E090E00E94000B813009F044C02BC0FA
:100EE000C7010196082F0295000F007E8E2D829576
:100EF000880F807E0F2EF0E3EF2EF02DE80E8BE8AA
:100F000095E00E94B919482F50E06BE875E0802FFA
:100F100090E00E94EF0B813041F585E995E00E9459
:100F2000B919482F50E065E975E08E2D90E00E94D8
:100F3000EF0B8130E1F4809189058130C9F48AEAB0
:100F400080938A056AEA80E090E00E94000B81307D
:100F500079F010E00DC010E00BC010E009C010E007
:100F600007C010E005C010E003C010E001C010E0B1
:100F7000812F64960FB6F894DEBF0FBECDBFDF9110
:100F8000CF911F910F91FF90EF900895EF92FF92F4
:100F90000F931F93CF93DF93CDB7DEB764970FB650
:100FA000F894DEBF0FBECDBF8E010F5F1F4F8AE0EA
:100FB000D8011D928A95E9F7FE013B9688E0DF0192
:100FC0001D928A95E9F71C8A1B8A8BE895E00E949E
:100FD000F81985E995E00E94F819C8010E944706B2
:100FE000182F813009F0B0C0CE0101960E94500048
:100FF0007C010196A9F484EC93E00E94EC10CE01F0
:1010000043960E94DE058B89893761F0893561F04E
:101010008E3609F4A4C08E3409F4A1C001E005C0E5
:1010200001E003C000E001C000E06BE875E0CE0124
:1010300001960E94041ACE010B960E948F06182F6B
:10104000813009F083C065E975E0CE010B960E94FE
:10105000041A01114CC080918905282F30E02F5FC0
:101060003F4FF22EFF0CFF0CFF0CFF0CFF0C829584
:10107000880F807E00E3080F8BE895E00E94B91985
:10108000482F50E06BE875E08F2D90E00E94EF0B49
:10109000813009F05DC085E995E00E94B919482FBB
:1010A00050E065E975E0802F90E00E94EF0B813001
:1010B00009F050C0609189056F5F6093890582E0F7
:1010C00090E00E94000B813009F046C080918905B4
:1010D000813009F044C08AEA80938A056AEA80E098
:1010E00090E00E94000B8130D1F110E038C0C701C0
:1010F0000196082F0295000F007E8E2D8295880F95
:10110000807E0F2EF0E3EF2EF02DE80E8BE895E0B9
:101110000E94B919482F50E06BE875E0802F90E0ED
:101120000E94EF0B8130D1F485E995E00E94B91956
:10113000482F50E065E975E08E2D90E00E94EF0B9E
:10114000813069F010E00BC010E009C010E007C06A
:1011500010E005C010E003C010E001C010E0812FD6
:1011600064960FB6F894DEBF0FBECDBFDF91CF916E
:101170001F910F91FF90EF9008951F93CF93DF93EE
:10118000EC010E94221110E08DE094E00E94EC102E
:101190008130B9F5CE010E94AD05813029F011F002
:1011A000863089F58630B1F3BE0188E595E00E946E
:1011B000C5198130E1F0133079F481E080936D003E
:1011C00065E871E084E991E00E94170F88E194E0FE
:1011D0000E94EC1089E01CC082E494E00E94EC10B4
:1011E000813099F41F5FCE010E94F819CDCF82E5BE
:1011F00094E00E94EC10813051F40E94261188E0A6
:1012000007C080E005C080E003C080E001C080E04E
:10121000DF91CF911F910895CF93DF93CDB7DEB7C4
:1012200069970FB6F894DEBF0FBECDBF80916E00F8
:10123000843009F018C1FE0131968AE0DF011D9269
:101240008A95E9F780916D0081118CC0198E188EF6
:10125000729685E0DF011D928A95E9F7389788E05C
:10126000DF011D928A95E9F780916E0581110DC00D
:10127000CE0143960E94BD08893009F467C08830CA
:1012800009F066C081E080936E058FE594E00E94CE
:10129000EC10CE0148960E94DE05888D813339F42A
:1012A0000E94CF06CE0148960E94F819D0C0823322
:1012B00039F40E94C607CE0148960E94F819C7C0AB
:1012C0008333D1F4CE010B960E940706CE010B9614
:1012D0000E94B919482F50E0BE01655F7F4F83E03F
:1012E00090E00E94EF0B8130A9F56CE775E0CE012C
:1012F0000B960E94041AABC0843309F580918A05CD
:101300008A3AA9F410926E0581E080936D000E94E4
:10131000120F85EA92E00E94EC108130E9F465E852
:1013200071E084E991E00E94170F81E09DC08DEA91
:1013300094E00E94EC10813089F080E095C08BEE43
:1013400094E00E94EC10813059F481C081E08CC09F
:1013500080E08AC080E088C080E086C081E084C0F0
:1013600080E082C08091B705813031F48091B8056A
:10137000811102C010926D00CE0101960E94AD0550
:10138000813031F56DE575E0CE0101960E94C519F9
:10139000813011F58091B805813051F48093B70503
:1013A0008BEF94E00E94EC10813009F04AC014C029
:1013B00010926D0060E772E081E892E00E94170FE2
:1013C00082E992E00E94EC108130E9F180E04CC0AB
:1013D000813011F08630C9F51B8ACE0143960E94F8
:1013E000950D8630B1F48B89813319F40E94300455
:1013F0002EC0823319F40E949C0029C08D3239F529
:101400001092B60565E871E084E991E00E94170F3B
:101410001EC08091B6058130D1F41B86CE010B969B
:101420000E946D0F813099F460E00E94B30E81300C
:1014300031F48B8590E00E94400F813041F080E0D4
:1014400013C080E011C081E00FC080E00DC024E631
:1014500030E040E050E060E070E080E090E00E942A
:10146000F21181E001C085E069960FB6F894DEBF05
:101470000FBECDBFDF91CF9108950E94EA04813065
:1014800039F48FB780688FBF0E940C098130E1F377
:1014900080E0089580916F00853071F082E990E0DE
:1014A0000E948B12813011F0873029F485E08093FF
:1014B0006F0081E0089580E00895823060F4611546
:1014C000710559F0E82FF0E0E754FA4F8081FB01F5
:1014D000808381E0089582E0089583E008950F936A
:1014E0001F93CF93DF931F92CDB7DEB7823008F002
:1014F00058C01982082F10E0F801E059FF4FBE01D3
:101500006F5F7F4F80810E946A14813009F04BC069
:101510008981813009F504C00196A11DB11D03C068
:1015200080E090E0DC01883B2BE09207A105B1054B
:1015300098F3BE016F5F7F4FF801E059FF4F808144
:101540000E946A14813089F58981813081F5F80122
:10155000E754FA4F808330C0882331F081E02CC0FB
:101560000196A11DB11D03C080E090E0DC01883B25
:101570002BE09207A105B10598F3BE016F5F7F4F85
:10158000F801E059FF4F80810E946A14813089F48C
:101590008981811110C0F801E754FA4F108281E06F
:1015A0000BC082E009C080E007C080E005C081E098
:1015B00003C080E001C081E00F90DF91CF911F91C7
:1015C0000F9108959A0122273770220F232F221F8F
:1015D000330B31952065FC012083FB01408381E0C2
:1015E000089580917100833051F00E9497178530E3
:1015F00029F083E08093710081E0089580E00895F0
:101600001F93CF93DF9300D01F92CDB7DEB7AC010D
:101610006B8390917100933011F519821A82BE018B
:101620006E5F7F4FCE0101960E94E20A182F813033
:10163000C1F421E030E0AE014D5F5F4F6A818981E6
:101640000E94D118813079F42FE030E040E050E082
:1016500060E070E080E090E00E94F21105C012E0CE
:1016600003C010E001C010E0812F0F900F900F9089
:10167000DF91CF911F910895EF92FF921F93CF9327
:10168000DF9300D0CDB7DEB7AC01909171009330FD
:1016900021F56115710519F17B0119821A82BE01CC
:1016A0006E5F7F4FCE0101960E94E20A182F8130B3
:1016B000C1F421E030E0A7016A8189810E942019EC
:1016C000813089F425E030E040E050E060E070E0F7
:1016D00080E090E00E94F21107C012E005C014E023
:1016E00003C010E001C010E0812F0F900F90DF9138
:1016F000CF911F91FF90EF900895EF92FF921F936B
:10170000CF93DF9300D0CDB7DEB7909171009330C7
:10171000F9F461157105F1F07B0190E1899FA00159
:10172000112419821A82BE016E5F7F4FCE0101968D
:101730000E94E20A182F813079F420E130E0A701FD
:101740006A8189810E94D118813039F010E005C08A
:1017500012E003C014E001C010E0812F0F900F9041
:10176000DF91CF911F91FF90EF900895EF92FF923C
:101770001F93CF93DF9300D0CDB7DEB79091710068
:101780009330F9F461157105F1F07B0190E1899FC7
:10179000A001112419821A82BE016E5F7F4FCE0113
:1017A00001960E94E20A182F813079F420E130E09E
:1017B000A7016A8189810E942019813039F010E0E7
:1017C00005C012E003C014E001C010E0812F0F90AB
:1017D0000F90DF91CF911F91FF90EF9008956F923E
:1017E0007F928F929F92AF92BF92CF92DF92EF92B1
:1017F000FF920F931F93CF93DF9300D0CDB7DEB747
:101800005C016B017A0180917100833009F0A1C005
:10181000672B09F4A0C019821A82A501BE016E5F70
:101820007F4FCE0101960E94E20A182F813009F005
:1018300094C0450180EF882287E09822969487948F
:10184000969487949694879496948794682C8A2D7E
:101850008F7051F190E1A92EA81AB12CEA14FB0463
:1018600058F49701A6016A8189810E94D1188130BC
:1018700009F47CC010E07AC09501A6016A818981D3
:101880000E94D118813009F06AC0EA18FB082FE0E5
:1018900030E040E050E060E070E080E090E00E94E6
:1018A000F2117724739403C0712CA12CB12CC701C1
:1018B000929582958F7089279F708927082F1CC069
:1018C0000150B6016A0D7B1D872D860D0E947D0B90
:1018D000813009F046C0739480E1E81AF10880E194
:1018E000A80EB11C2FE030E040E050E060E070E076
:1018F00080E090E00E94F211101614F3E114F1045C
:10190000A9F1A401470D511D42955295507F5427CE
:10191000407F5427BE016E5F7F4FCE0101960E942B
:10192000E20A182F8130F9F4A6014A0D5B1D9701D8
:101930006A8189810E94D1188130B9F42FE030E0AA
:1019400040E050E060E070E080E090E00E94F21142
:101950000DC012E00BC014E009C010E007C010E099
:1019600005C010E003C010E001C010E0812F0F900F
:101970000F90DF91CF911F910F91FF90EF90DF902B
:10198000CF90BF90AF909F908F907F906F90089571
:101990006F927F928F929F92AF92BF92CF92DF927F
:1019A000EF92FF920F931F93CF93DF9300D0CDB7A9
:1019B000DEB75C016B017A0180917100833009F020
:1019C00084C0672B09F483C019821A82A501BE0165
:1019D0006E5F7F4FCE0101960E94E20A182F813080
:1019E00009F077C0450180EF882287E0982296941D
:1019F0008794969487949694879496948794782C59
:101A00008A2D8F70F9F090E1A92EA81AB12CEA1452
:101A1000FB0458F49701A6016A8189810E9420196C
:101A2000813009F45DC010E05BC09501A6016A81B8
:101A300089810E942019813009F04DC0EA18FB0805
:101A400001E003C000E0A12CB12CC7019295829562
:101A50008F7089279F70892711C0B6016A0D7B1D81
:101A6000802F870D0E94B60B8130B9F50F5F80E1A2
:101A7000E81AF10880E1A80EB11C862D66246A944C
:101A8000680E8111EACFE114F10451F1A401400F75
:101A9000511D42955295507F5427407F5427BE01D7
:101AA0006E5F7F4FCE0101960E94E20A182F8130AF
:101AB000B1F4A6014A0D5B1D97016A8189810E94DC
:101AC0002019813069F010E00BC012E009C014E069
:101AD00007C010E005C010E003C010E001C010E036
:101AE000812F0F900F90DF91CF911F910F91FF9059
:101AF000EF90DF90CF90BF90AF909F908F907F90AE
:101B00006F90089580917200853071F082E990E0C5
:101B10000E948B12813011F0873029F485E0809388
:101B2000720081E0089580E00895AF92BF92CF9255
:101B3000DF92EF92FF920F931F93CF93DF931F9249
:101B4000CDB7DEB76C0190917200953009F050C0AE
:101B5000C114D10409F44EC081E0898300E043C080
:101B6000A02EB12CF501E957FF4F60E080810E9463
:101B70007913813009F040C010E029C0E12EF12C2A
:101B8000F701ED57FF4FBE016F5F7F4F80810E94CD
:101B90006A14813099F58981811118C061E0F501DD
:101BA000E957FF4F80810E947913813049F59701F1
:101BB000220F331F220F331F2D583F4FF901EA0D1B
:101BC000FB1D8081F601808386E01DC01F5F1430FD
:101BD000A8F2F501E957FF4F61E080810E94791377
:101BE000813081F40F5F043008F4BACF87E00BC076
:101BF00084E009C083E007C080E005C080E003C046
:101C000080E001C080E00F90DF91CF911F910F9194
:101C1000FF90EF90DF90CF90BF90AF900895CF935B
:101C2000C82F80FF05C061E08AE00E94791304C0DC
:101C300060E08AE00E947913C1FF05C061E08BE09B
:101C40000E94791304C060E08BE00E947913C2FF08
:101C500005C061E08CE00E94791304C060E08CE074
:101C60000E947913C3FF05C061E08DE00E947913E3
:101C700004C060E08DE00E947913CF91089561E087
:101C800089E00E94791321E030E040E050E060E01C
:101C900070E080E090E00E94F21160E089E00E9434
:101CA00079130895CF93C82F60E087E00E947913DD
:101CB0008C2F82958F700E940F0E0E943F0E21E0A4
:101CC00030E040E050E060E070E080E090E00E94B2
:101CD000F2118C2F8F700E940F0E0E943F0E22E097
:101CE00030E040E050E060E070E080E090E00E9492
:101CF000F21181E0CF91089580918B00863091F1AF
:101D000082E990E00E948B12813011F0873049F512
:101D100024E130E040E050E060E070E080E090E0FE
:101D20000E94F21160E087E00E94791360E089E090
:101D30000E94791383E30E94520E82E30E94520EA6
:101D400088E20E94520E8CE00E94520E86E00E94B1
:101D5000520E81E00E94520E86E080938B0081E05B
:101D6000089580E0089590918B00963089F4833037
:101D700088F4613188F4282F30E02E5F3F4F862FA2
:101D800090E4299F800D11240E94520E81E0089555
:101D900085E0089583E0089582E00895CF939091BF
:101DA0008B00963041F5C82F61E087E00E947913DF
:101DB0008C2F82958F700E940F0E0E943F0E21E0A3
:101DC00030E040E050E060E070E080E090E00E94B1
:101DD000F2118C2F8F700E940F0E0E943F0E22E096
:101DE00030E040E050E060E070E080E090E00E9491
:101DF000F21181E001C085E0CF910895CF93DF9388
:101E0000EC0180918B00863049F403C021960E943A
:101E1000CE0E88818111FACF81E001C085E0DF918B
:101E2000CF91089581E00E94520E81E008950F93B2
:101E30001F93CF93DF93EC018B010E94120F60E0A0
:101E400080E00E94B30E813089F4CE010E94FE0E24
:101E5000813071F460E00E94B30E813059F4C80102
:101E60000E94FE0E813039F080E005C080E003C0A2
:101E700080E001C080E0DF91CF911F910F91089524
:101E8000CF93DF93CDB7DEB761970FB6F894DEBF7F
:101E90000FBECDBF41E0BE016F5F7F4F0E94151A9C
:101EA000CE0101960E94FE0E81E061960FB6F89475
:101EB000DEBF0FBECDBFDF91CF91089580918C0022
:101EC000853051F00E942D11813029F485E08093F6
:101ED0008C0081E0089580E008950F931F93CF93C5
:101EE000DF9300D000D0CDB7DEB79C0190918C007D
:101EF0009530F1F421153105E9F0890119821A8232
:101F00001B821C82BE016F5F7F4F80E00E945511D3
:101F1000813091F469817A818B819C812AE030E063
:101F200040E050E00E94AA20F801208381E005C033
:101F300084E003C083E001C080E00F900F900F9019
:101F40000F90DF91CF911F910F91089580918D0097
:101F5000863049F00E94F81B813039F486E0809386
:101F60008D0081E0089586E0089580E00895DF9275
:101F7000EF92FF920F931F93CF93DF9381115DC078
:101F8000D82E082F10E07801EE0CFF1CEE0CFF1C81
:101F9000C701800F911FEC01CD59DA4F60E08981B4
:101FA0000E94791360E08A810E947913E0E01CC0EE
:101FB000ED15C9F0D801AA0FBB1FAA0FBB1FA00FB8
:101FC000B11FAD59BA4F2C918E2F90E0DC01AA0FB2
:101FD000BB1FAA0FBB1F8A0F9B1FDC01AD59BA4F55
:101FE0008C91281719F0EF5FEE2311F3E13069F4BB
:101FF000F801EE0FFF1FEE0FFF1FE00FF11FED596D
:10200000FA4F80810E94481D12C0F0E0E654FA4F5A
:10201000808181110CC0F801EE0FFF1FEE0FFF1F32
:10202000E00FF11FED59FA4F80810E94481DF80121
:10203000E654FA4F108281E001C082E0DF91CF9137
:102040001F910F91FF90EF90DF900895FF920F93F3
:102050001F93CF93DF9390918D00963009F057C076
:10206000811157C0653608F056C0423008F055C09F
:10207000082F10E0F801E654FA4F9081913009F4EE
:102080004EC0F62E611104C00E94B70F81E048C017
:10209000411112C025E0209FC001219F900D112405
:1020A000EC01CD59DA4F61E089810E94791360E03B
:1020B0008A810E94791313C0413089F425E0209F62
:1020C000C001219F900D1124EC01CD59DA4F60E041
:1020D00089810E94791361E08A810E947913F80155
:1020E000E654FA4F81E08083F801EE0FFF1FEE0FF8
:1020F000FF1FE00FF11FED59FA4F4381548160E05B
:1021000070E02F2D80810E94141C81E009C087E0BF
:1021100007C082E005C083E003C084E001C085E021
:10212000DF91CF911F910F91FF900895CF93DF938F
:10213000C091BC05D0E00E94ED1DC354DA4F8883E6
:102140009091BC05E92FF0E0E354FA4F80818D3087
:1021500071F40E94A61DE091BC05F0E0E354FA4F33
:1021600010821092BC0581E08093BB051DC08830B1
:1021700051F4992341F00E94A61D8091BC05815025
:102180008093BC0511C0883079F09091BC069130E5
:1021900021F48AE20E94A61D02C00E94A61D809121
:1021A000BC058F5F8093BC05DF91CF91089580912E
:1021B0008E00833081F00E94901D813011F08730B5
:1021C00049F486E990E10E94D81D83E080938E0057
:1021D00081E0089580E00895CF93DF93009781F028
:1021E00020918E00223079F0EC010E94B919682FFD
:1021F00070E0CE010E94B11D813021F020E003C0CB
:1022000024E001C021E0822FDF91CF910895BC012D
:10221000892BA1F080918E00823099F08091BB05CE
:10222000813071F41092BB058DEB95E00E94041A89
:102230008DEB95E00E94F81985E0089584E00895FB
:1022400081E0089581E08093BC0608951092BC0659
:1022500081E008950E943D0AFFCF80918F00873072
:1022600011F120E013C03BB3E22FF0E0EE0FFF1FAF
:10227000E057FF4F81E090E0008002C0880F991F77
:102280000A94E2F7809583238BBB2F5F222359F3B7
:1022900097E096B986B18F7D86B986B186B990935D
:1022A0008F0081E0089588E00895CF92DF92EF9249
:1022B000FF92CF93DF9390918F00973009F061C028
:1022C0006115710509F45FC037B190E0FC01EE0FB4
:1022D000FF1FE057FF4F2081232B27B947B13181E2
:1022E00050E4359F90011124242B27B926B1206892
:1022F00026B926B1206426B9349BFECF44B125B15E
:1023000030E0322F2227242B880F991FFC01E05741
:10231000FF4F8181833041F0813069F08823A1F043
:10232000C12CD12C760118C0C12CD12C7601689417
:10233000E5F8F6F811C00F2EC12CF0E4DF2EFCE911
:10234000EF2EFD2CF02D08C00F2EC12CF0E4DF2E57
:10235000FCE9EF2EFD2CF02DEB01B90180E090E0BF
:102360000E94771FA70196010E9429200E94481F02
:10237000688379838A839B8386B1806186B981E093
:1023800003C086E001C085E0DF91CF91FF90EF9020
:10239000DF90CF9008951F920F920FB60F921124E5
:1023A0002F933F934F935F936F937F938F939F935D
:1023B000AF93BF93EF93FF93E091BD06F091BE06FC
:1023C0000995FF91EF91BF91AF919F918F917F916F
:1023D0006F915F914F913F912F910F900FBE0F9092
:1023E0001F9018952F923F924F925F926F927F921B
:1023F0008F929F92AF92BF92CF92DF92EF92FF9215
:102400000F931F93CF93DF9300D000D000D0CDB7B0
:10241000DEB7222E332E442E552E662E79838A83E4
:102420009B83912C1D821C82B0E0F0E0E0E0712CD7
:10243000812C44C02D2D3E2D4F2D502F612F7A2FF2
:102440008B2D9C2DA1E00E94E120D22EE32EF42EB4
:10245000052F162FA72FB82EC92E0AC0D12CE12C7C
:10246000F12C00E010E0A0E0B12CC12CAD80EE8397
:102470002D2D3E2D4F2D502F612F7A2F8B2D9C2DE2
:102480002B3831054105510561057105810591051F
:1024900089F280F2EE81292D3A2D4C815B2F6F2F2E
:1024A0007E2F872D982DA1E00E94E120922E3D8362
:1024B0004C83B52FF62FE72F782E892E292D3D81BD
:1024C0004C815B2F6F2F7E2F872D982DA22CB32C44
:1024D000C42CD52CE62CF9800A811B810E94ED20AA
:1024E00008F4BCCF26960FB6F894DEBF0FBECDBF62
:1024F000DF91CF911F910F91FF90EF90DF90CF90E0
:10250000BF90AF909F908F907F906F905F904F9013
:102510003F902F900895AC01892B09F4E4C090E01E
:10252000D7C0E92FF0E0EE0FFF1FEE0FFF1FE40F03
:10253000F51F3181383008F0D8C020812130C1F139
:1025400038F0223009F464C0233009F491C0CFC0C0
:102550002AB361E070E0DB0102C0AA0FBB1F3A950D
:10256000E2F78A2F809582238ABBAAB38281282F23
:1025700030E0018002C0220F331F0A94E2F72A2BB9
:102580002ABB8BB3018002C0660F771F0A94E2F763
:10259000609568236BBB6BB38381282F30E001808B
:1025A00002C0220F331F0A94E2F7262B2BBB8FC0E9
:1025B00027B361E070E0DB0102C0AA0FBB1F3A95B0
:1025C000E2F78A2F8095822387BBA7B38281282FC9
:1025D00030E0018002C0220F331F0A94E2F72A2B59
:1025E00027BB88B3018002C0660F771F0A94E2F709
:1025F0006095682368BB68B38381282F30E0018031
:1026000002C0220F331F0A94E2F7262B28BB5FC0BB
:1026100024B361E070E0DB0102C0AA0FBB1F3A9552
:10262000E2F78A2F8095822384BBA4B38281282F6E
:1026300030E0018002C0220F331F0A94E2F72A2BF8
:1026400024BB85B3018002C0660F771F0A94E2F7AE
:102650006095682365BB65B38381282F30E00180D6
:1026600002C0220F331F0A94E2F7262B25BB2FC08E
:1026700021B361E070E0DB0102C0AA0FBB1F3A95F5
:10268000E2F78A2F8095822381BBA1B38281282F14
:1026900030E0018002C0220F331F0A94E2F72A2B98
:1026A00021BB82B3018002C0660F771F0A94E2F754
:1026B0006095682362BB62B38381282F30E001807C
:1026C00002C0220F331F0A94E2F7262B22BB9F5F22
:1026D000943108F426CF5093C1064093C00681E0A0
:1026E0008093BF06089585E0089583E0089584E00F
:1026F0000895853108F090C09091BF06992309F4A0
:102700008DC0E82FF0E0CF01880F991F880F991F27
:10271000E091C006F091C106E80FF91F8081813079
:1027200021F130F08230F1F1833009F458C078C0E3
:10273000613069F42BB381E090E0018002C0880F22
:10274000991F0A94E2F7822B8BBB81E008952BB38B
:1027500081E090E0018002C0880F991F0A94E2F79F
:10276000809582238BBB81E00895613069F428B3A2
:1027700081E090E0018002C0880F991F0A94E2F77F
:10278000822B88BB81E0089528B381E090E001802E
:1027900002C0880F991F0A94E2F78095822388BBB4
:1027A00081E00895613069F425B381E090E0018013
:1027B00002C0880F991F0A94E2F7822B85BB81E043
:1027C000089525B381E090E0018002C0880F991F31
:1027D0000A94E2F78095822385BB81E008956130F9
:1027E00069F422B381E090E0018002C0880F991F54
:1027F0000A94E2F7822B82BB81E0089522B381E044
:1028000090E0018002C0880F991F0A94E2F780953A
:10281000822382BB81E0089582E0089586E00895D6
:1028200084E00895853108F04FC09091BF06992348
:1028300009F44CC0E82FF0E0CF01880F991F880FF2
:10284000991FE091C006F091C106E80FF91F808141
:10285000813099F028F08230E9F0833041F138C0BE
:102860002BB381E090E0018002C0880F991F0A9489
:10287000E2F782278BBB81E0089528B381E090E0E6
:10288000018002C0880F991F0A94E2F7822788BB53
:1028900081E0089525B381E090E0018002C0880FB7
:1028A000991F0A94E2F7822785BB81E0089522B33D
:1028B00081E090E0018002C0880F991F0A94E2F73E
:1028C000822782BB81E0089582E0089586E0089522
:1028D00084E00895853108F07CC09091BF0699236B
:1028E00009F479C0E82FF0E0CF01880F991F880F15
:1028F000991FE091C006F091C106E80FF91F808191
:102900008130F9F030F08230A1F1833009F449C010
:1029100064C049B3518181E090E09C01052E02C062
:10292000220F331F0A94E2F7842F90E0822393232F
:1029300002C0959587955A95E2F7FB01808381E067
:10294000089546B3518181E090E09C01052E02C0BC
:10295000220F331F0A94E2F7842F90E082239323FF
:1029600002C0959587955A95E2F7FB01808381E037
:10297000089543B3518181E090E09C01052E02C08F
:10298000220F331F0A94E2F7842F90E082239323CF
:1029900002C0959587955A95E2F7FB01808381E007
:1029A000089540B3518181E090E09C01052E02C062
:1029B000220F331F0A94E2F7842F90E0822393239F
:1029C00002C0959587955A95E2F7FB01808381E0D7
:1029D000089582E0089586E0089584E008951F92A6
:1029E0000F920FB60F9211242F933F934F935F9343
:1029F0006F937F938F939F93AF93BF93EF93FF93C7
:102A0000E091C606F091C7060995FF91EF91BF913D
:102A1000AF919F918F917F916F915F914F913F9176
:102A20002F910F900FBE0F901F9018951F920F922D
:102A30000FB60F9211242F933F934F935F936F9391
:102A40007F938F939F93AF93BF93EF93FF93E09107
:102A5000C406F091C5060995FF91EF91BF91AF9122
:102A60009F918F917F916F915F914F913F912F91A6
:102A70000F900FBE0F901F9018951F920F920FB6D8
:102A80000F9211242F933F934F935F936F937F93F4
:102A90008F939F93AF93BF93EF93FF93E091C20601
:102AA000F091C3060995FF91EF91BF91AF919F916E
:102AB0008F917F916F915F914F913F912F910F90E7
:102AC0000FBE0F901F90189590E00EC0292F30E098
:102AD000F901EE0FFF1F2E0F3F1FF901E859FA4FC2
:102AE0002081281719F09F5F992381F3892F90E0A7
:102AF000FC01EE0FFF1FEE0FFF1FE753F94F408160
:102B0000518162817381411551056105710581F023
:102B1000880F991F880F991FFC01E753F94F415007
:102B20005109610971094083518362837383089558
:102B300023B72E7F23BF23B72D7F23BF23B72B7F40
:102B400023BF29B72E7F29BFFC01E353F94F24E0AF
:102B50002083E091CE06F091CF06099508958091EB
:102B6000C806813061F120E024C0822F90E0FC0192
:102B7000EE0FFF1FE80FF91FE859FA4F308133239A
:102B800019F03330F0F40FC0FC01EE0FFF1FE80F17
:102B9000F91FE859FA4F3281311105C013BE39B718
:102BA0003C7F39BF12BEFC01E353F94F31E0308363
:102BB0002F5F2223D1F281E08093C806089583E03D
:102BC000089585E008950F931F93CF93DF938901B4
:102BD00081114AC0C82FD0E0FE01E353F94F808134
:102BE000882309F443C0823009F442C082E0FE0128
:102BF000E353F94F8083FE01EE0FFF1FEC0FFD1F23
:102C0000E859FA4F8081882321F0833098F185E0DC
:102C100034C0CB01BA012FEF30E040E050E00E9419
:102C2000AA20FE01EE0FFF1FEE0FFF1FE753F94F23
:102C30002083318342835383262F372F89B78160C6
:102C400089BF1093CF060093CE06CE01880F991F3F
:102C5000C80FD91FC859DA4F898183BF232B61F070
:102C6000619562BF81E009C086E007C082E005C0CF
:102C700087E003C081E001C081E0DF91CF911F9127
:102C80000F910895811123C090E0FC01E353F94FA7
:102C900020812223F1F02230F1F4FC01EE0FFF1F1E
:102CA000E80FF91FE859FA4F2081222319F0233049
:102CB000A0F406C023B7287F23BF29B72C7F29BFE4
:102CC000FC01E353F94F23E0208381E0089586E07F
:102CD000089582E0089588E0089585E008951F92A0
:102CE0000F920FB60F9211242F933F934F935F9340
:102CF0006F937F938F939F93AF93BF93EF93FF93C4
:102D000080E00E946415FF91EF91BF91AF919F9178
:102D10008F917F916F915F914F913F912F910F9084
:102D20000FBE0F901F9018951F920F920FB60F9223
:102D300011242F933F934F935F936F937F938F93C0
:102D40009F93AF93BF93EF93FF9380E00E9464152E
:102D5000FF91EF91BF91AF919F918F917F916F9173
:102D60005F914F913F912F910F900FBE0F901F9049
:102D700018951F920F920FB60F9211242F933F9325
:102D80004F935F936F937F938F939F93AF93BF9373
:102D9000EF93FF9381E00E946415FF91EF91BF9143
:102DA000AF919F918F917F916F915F914F913F91E3
:102DB0002F910F900FBE0F901F9018951F920F929A
:102DC0000FB60F9211242F933F934F935F936F93FE
:102DD0007F938F939F93AF93BF93EF93FF9381E084
:102DE0000E946415FF91EF91BF91AF919F918F91D8
:102DF0007F916F915F914F913F912F910F900FBEF7
:102E00000F901F9018951F920F920FB60F921124DA
:102E10002F933F934F935F936F937F938F939F93E2
:102E2000AF93BF93EF93FF9381E00E946415FF91EE
:102E3000EF91BF91AF919F918F917F916F915F9132
:102E40004F913F912F910F900FBE0F901F901895AB
:102E50001F920F920FB60F9211242F933F934F930F
:102E60005F936F937F938F939F93AF93BF93EF93F2
:102E7000FF9381E00E946415FF91EF91BF91AF91A4
:102E80009F918F917F916F915F914F913F912F9182
:102E90000F900FBE0F901F9018951F920F920FB6B4
:102EA0000F9211242F933F934F935F936F937F93D0
:102EB0008F939F93AF93BF93EF93FF9382E00E9412
:102EC0006415FF91EF91BF91AF919F918F917F9189
:102ED0006F915F914F913F912F910F900FBE0F9087
:102EE0001F9018951F920F920FB60F9211242F93D7
:102EF0003F934F935F936F937F938F939F93AF9382
:102F0000BF93EF93FF9382E00E946415FF91EF91CE
:102F1000BF91AF919F918F917F916F915F914F91F1
:102F20003F912F910F900FBE0F901F901895809199
:102F3000E200863049F082E081B989E080B986E01C
:102F40008093E20081E0089587E008958091E20097
:102F5000863059F484EA86BF06B607FEFDCF81B1FC
:102F6000887F883021F080E0089585E0089581E031
:102F700008959091E200963029F5623028F5882373
:102F80002CF190E0880F991F682B63B984E886BF05
:102F900006B607FEFDCF81B1887F883359F028F44B
:102FA0008831B1F0803241F00BC0803489F0883430
:102FB00029F006C088E3089580E2089588E4089522
:102FC00080E0089585E0089582E0089583E0089503
:102FD00081E008958091E200863059F484EA86BF4A
:102FE00006B607FEFDCF81B1887F803121F080E0F9
:102FF000089585E0089581E008958091E20086308B
:1030000039F484E986BF06B604FCFDCF81E008955B
:1030100085E008959091E200963069F483B984E8E0
:1030200086BF06B607FEFDCF81B1887F883229F0C2
:10303000803329F4089585E0089588E2089580E0BA
:103040000895FC019091E200963079F4309779F080
:1030500084EC86BF06B607FEFDCF81B1887F803540
:1030600041F483B1808381E0089585E0089584E090
:10307000089580E00895FC019091E200963079F483
:10308000309779F084E886BF06B607FEFDCF81B1A0
:10309000887F883541F483B1808381E0089585E09D
:1030A000089584E0089580E008957F928F929F9222
:1030B000AF92BF92CF92DF92EF92FF920F931F9346
:1030C000CF93DF93782EEB017A0169018091E200C2
:1030D000863009F047C0209709F446C0232B09F435
:1030E00045C077200CF444C00E94A617882309F439
:1030F0004AC060E0872D0E94B9178130D9F50BC016
:103100004E018FEF881A980A88810E940A1875016B
:103110008823C9F1E401570181E0A81AB108EF281A
:1031200079F70E94EA17813039F561E0872D0E9416
:10313000B917813019F508C0E6012196C6010E9431
:1031400021188130E9F46E0101501109A9F7C60177
:103150000E943B188130B1F40E94FD17813099F034
:1031600080E011C085E00FC084E00DC084E00BC09A
:1031700083E009C080E007C080E005C080E003C0B4
:1031800080E001C080E0DF91CF911F910F91FF900F
:10319000EF90DF90CF90BF90AF909F908F907F90F7
:1031A0000895BF92CF92DF92EF92FF920F931F93F9
:1031B000CF93DF93182F062FEA0179018091E20067
:1031C000863059F5209759F111235CF10E94A6171A
:1031D000882361F160E0812F0E94B917B82E81E049
:1031E000B81221C0802F0E940A1881110CC01EC085
:1031F0006E018FEFC81AD80A88810E940A187801D8
:103200008823A1F0E601870101501109EF2881F719
:103210000E94FD17811109C009C085E007C084E044
:1032200005C083E003C080E001C08B2DDF91CF910A
:103230001F910F91FF90EF90DF90CF90BF90089576
:103240000F931F93CF93DF931F92CDB7DEB76983A0
:1032500089019A0141E050E0BE016F5F7F4F0E94FB
:1032600055180F90DF91CF911F910F910895809184
:10327000E3008730B9F087B3806487BB87B38F7D65
:1032800087BB87B38F7E87BB87B38F7787BB8DB1B3
:103290008F7E8DB98DB180648DB987E08093E30016
:1032A00081E0089588E00895FC019091E300973053
:1032B00041F4309741F0779BFECF8FB1808381E05E
:1032C000089586E0089585E00895CF92DF92EF9209
:1032D000FF921F93CF93DF936C019091E30097309F
:1032E000B1F47B0110E00CC0E601C80FD91FCE017C
:1032F0000E945419813069F49881992359F01F5F15
:10330000812F90E08E159F0578F381E003C086E061
:1033100001C080E0DF91CF911F91FF90EF90DF908F
:10332000CF9008951F920F920FB60F9211242F93F2
:103330003F934F935F936F937F938F939F93AF933D
:10334000BF93EF93FF93E091D006F091D1060995DA
:10335000FF91EF91BF91AF919F918F917F916F916D
:103360005F914F913F912F910F900FBE0F901F9043
:103370001895AC0180E001C08F5FFA01E80FF11DE4
:1033800020812111F9CF8F5F0895FF920F931F9332
:10339000CF93DF938C01EB010E94B919F82ECE0177
:1033A0000E94B9198F15B8F0F816B8F030E009C0CE
:1033B000FE01E80FF91F8081821788F0281788F036
:1033C0003F5F832F90E0F801E80FF91F2081211162
:1033D000EFCF81E007C082E005C083E003C082E058
:1033E00001C083E0DF91CF911F910F91FF9008956D
:1033F000AC0190E002C09F5F1082FA01E90FF11D5D
:1034000020812111F8CF0895DC0190E005C0FB0177
:10341000E20FF31F40839F5F292F30E0FD01E20F91
:10342000F31F40814111F3CF08950F931F93CF9362
:10343000DF93FC018B01413009F040C0C0E0D0E0D7
:103440006AE070E00E949620CB01009711F021966F
:10345000F7CFDE011196A00FB11F1C922DC0A8015D
:103460004C0F5D1F9F01ADECBCEC0E94D2209695E5
:10347000879596958795969587959C01220F331F82
:10348000880F991F880F991F880F991F820F931F0C
:103490009F01281B390BC901805DDA018C939F01C4
:1034A000ADECBCEC0E94D220FC01F695E795F695B8
:1034B000E795F695E7952197309789F6DF91CF91BB
:1034C0001F910F9108958F929F92AF92BF92CF92CA
:1034D000DF92EF92FF920F931F93CF93DF93EC0154
:1034E0000E94B9190FEF080FC12CD12C760110E002
:1034F0001EC0FE01E10FF11D60816E3211F41F5FED
:1035000018C070E060537109072E000C880B990BEE
:103510000E94791FA70196010E94651E20E030E0FD
:1035200040E251E40E9429206B017C011F5F1017CB
:1035300000F320E030E040E251E4C701B6010E9410
:10354000D61E4B015C010F2EC12CD12CF0E8EF2EC2
:10355000FFE3FF2EF02D24C020E030E040E251E4F4
:10356000C701B6010E94D61E6B017C01FE01E10F6E
:10357000F11D608170E060537109072E000C880B0B
:10358000990B0E94791FA70196010E9429209B0197
:10359000AC01C501B4010E94651E4B015C011F5FB7
:1035A0001017D0F2C501B401DF91CF911F910F9197
:1035B000FF90EF90DF90CF90BF90AF909F908F9053
:1035C00008958F929F92AF92BF92CF92DF92EF9227
:1035D000FF920F931F93CF93DF934B015C018A01FE
:1035E0000E94481FC62ED72EE82EF92E262F372FE1
:1035F000482F592FD0E009C0CA01B9012AE030E0B4
:1036000040E050E00E94AA20DF5F2115310541050E
:10361000510591F7CFEFCD0F6C2D7D2D8E2D9F2D68
:1036200014C02AE030E040E050E00E94AA20DC0113
:10363000CB01C096A11DB11DF801EC0FF11D8083D7
:10364000622F732F842F952FC1506115710581054D
:10365000910539F76C2D7D2D8E2D9F2D0E94771FA2
:103660009B01AC01C501B4010E94641E20E030E062
:1036700040E251E40E9429206B017C010E94481F16
:1036800021E02D0FF801ED0FF11D3EE23083DE5FEA
:10369000F801E20FF11D20E3260F20830E94771F1F
:1036A0009B01AC01C701B6010E94641E20E030E01E
:1036B00040E251E40E9429200E94481FF801ED0FCA
:1036C000F11D605D6083DF91CF911F910F91FF909D
:1036D000EF90DF90CF90BF90AF909F908F90089524
:1036E0000F931F93E091D306F0E0EE0FFF1FE55913
:1036F000FA4F80810E941214813009F076C08091C7
:10370000D30690E09C01220F331FF901EE0FFF1F3B
:10371000EE0FFF1FEE0FFF1FE21BF30BEC52F94FF2
:103720002585223009F061C0880F991FFC01EE0F3A
:10373000FF1FEE0FFF1FEE0FFF1FE81BF90BEC52F0
:10374000F94F4185528563857485FC01E559FA4F2F
:1037500020E73BE181810E94E315813009F045C0FB
:103760008091D30690E09C01220F331FF901EE0FE8
:10377000FF1FEE0FFF1FEE0FFF1FE21BF30BEC52BC
:10378000F94F0185128523853485458156816781EE
:1037900070850417150726073707B1F4880F991F9E
:1037A000FC01EE0FFF1FEE0FFF1FEE0FFF1FE81BC8
:1037B000F90BEC52F94F81819281A381B481818709
:1037C0009287A387B48711C0880F991FFC01EE0F61
:1037D000FF1FEE0FFF1FEE0FFF1FE81BF90BEC5250
:1037E000F94F41875287638774871F910F9108951E
:1037F0008091D206813091F00E94AF15813011F096
:10380000833071F482E990E00E948B12813011F0D4
:10381000873041F481E08093D206089580E00895D6
:1038200080E0089580E008954F925F926F927F92BA
:103830008F929F92AF92BF92CF92DF92EF92FF92C0
:103840000F931F93CF93DF9300D000D000D0CDB75C
:10385000DEB79091D206913009F0F2C08111F2C02A
:10386000253608F0F1C0E82FF0E0FE83ED83DF019C
:10387000AA0FBB1FFD01EE0FFF1FEE0FFF1FEE0F84
:10388000FF1FEA1BFB0BEC52F94F9585923009F4B0
:10389000DDC0222309F4DCC0122FC82E243661F4C7
:1038A000FD01E559FA4F61E080810E947913813072
:1038B00009F4D0C080E0D5C0CB01BA010E94771FC7
:1038C0009B01AC0160E070E080E89FE30E94D61E9F
:1038D0004B015C01612F70E080E090E00E94791F55
:1038E000A50194010E94292020E030E048EC52E438
:1038F0000E94D61E2B013C019B01AC01C501B40105
:103900000E94641E4B015C01ED81FE81EE0FFF1FE2
:10391000E559FA4FD1808D2D90E0FC01EE0FFF1F8D
:103920008E0F9F1FFC01E859FA4FE1818E2F90E026
:10393000FC013197E730F10508F08EC0E65DFF4FDE
:103940000C94CC2061E070E00BC060E470E008C033
:1039500060E071E005C060E074E002C068E070E023
:1039600080E090E00E94771F20E034E244E759E4D1
:103970000E94D61E69837A838B839C83C092D30670
:103980009B01AC01C301B2010E94D61EED80FE80F6
:10399000EE0CFF1C8701000F111F000F111F000FFD
:1039A000111F0E191F090C52194F0E94481FF801D0
:1039B000618372838383948329813A814B815C8103
:1039C000C501B4010E94D61E0E94481FF8016583FC
:1039D000768387839087C082F701E559FA4F61E0CB
:1039E00080810E9479138130C9F58EE02D813E815E
:1039F000829FF001839FF00D1124EC52F94F418119
:103A000052816381748120E73BE18D2D0E94E31593
:103A1000813031F58EE02D813E81829FF001839FC0
:103A2000F00D1124EC52F94F85819681A781B08564
:103A300081879287A387B48782E0858781E011C060
:103A400082E00FC083E00DC084E00BC085E009C0B8
:103A500081E007C081E005C080E003C080E001C0D4
:103A600080E026960FB6F894DEBF0FBECDBFDF9183
:103A7000CF911F910F91FF90EF90DF90CF90BF906B
:103A8000AF909F908F907F906F905F904F90089530
:103A9000CF93DF939091D2069130B1F5811136C06A
:103AA000C82FD0E0CE01880F991FFC01EE0FFF1F39
:103AB000EE0FFF1FEE0FFF1FE81BF90BEC52F94F43
:103AC0008585823029F5FE01EE0FFF1FE559FA4F7B
:103AD00060E080810E9479138130E1F48EE08C9F58
:103AE000F0018D9FF00D1124EC52F94F83E0858792
:103AF000FE01EE0FFF1FE559FA4F81810E94421629
:103B0000813051F080E009C082E007C083E005C049
:103B100085E003C080E001C081E0DF91CF9108958E
:103B20008091E206813081F010BC87E689B982E09D
:103B30008BB988E18AB980E880BD80B5866880BD90
:103B400081E08093E206089587E008959091E2066F
:103B5000992329F05D9BFECF8CB981E0089586E022
:103B60000895EF92FF920F931F93CF93DF932091CD
:103B7000E206222399F08B017C01C0E0D0E009C06D
:103B8000F701EC0FFD1F80810E94A61D813041F4DA
:103B90002196C017D107A0F381E003C086E001C0E1
:103BA00080E0DF91CF911F910F91FF90EF900895EA
:103BB0009C019091E206992361F02115310559F09D
:103BC0008AB180688AB93093E6062093E50681E0E1
:103BD000089586E0089585E008958CB108951F92B8
:103BE0000F920FB60F9211242F933F934F935F9331
:103BF0006F937F938F939F93AF93BF93EF93FF93B5
:103C0000E091E706F091E8060995FF91EF91BF91E9
:103C1000AF919F918F917F916F915F914F913F9164
:103C20002F910F900FBE0F901F9018951F920F921B
:103C30000FB60F9211242F933F934F935F936F937F
:103C40007F938F939F93AF93BF93EF93FF93E091F5
:103C5000E506F091E6060995FF91EF91BF91AF91CE
:103C60009F918F917F916F915F914F913F912F9194
:103C70000F900FBE0F901F9018951F920F920FB6C6
:103C80000F9211242F933F934F935F936F937F93E2
:103C90008F939F93AF93BF93EF93FF93E091E306CE
:103CA000F091E4060995FF91EF91BF91AF919F913B
:103CB0008F917F916F915F914F913F912F910F90D5
:103CC0000FBE0F901F9018955058BB27AA270E942F
:103CD0007C1E0C94EF1F0E94E11F38F00E94E81F29
:103CE00020F039F49F3F19F426F40C94DE1F0EF4F3
:103CF000E095E7FB0C94D81FE92F0E94002058F3B1
:103D0000BA17620773078407950720F079F4A6F5C0
:103D10000C9422200EF4E0950B2EBA2FA02D0B014F
:103D2000B90190010C01CA01A0011124FF27591B00
:103D300099F0593F50F4503E68F11A16F040A22F06
:103D4000232F342F4427585FF3CF46953795279577
:103D5000A795F0405395C9F77EF41F16BA0B620B76
:103D6000730B840BBAF09150A1F0FF0FBB1F661FBD
:103D7000771F881FC2F70EC0BA0F621F731F841F00
:103D800048F4879577956795B795F7959E3F08F026
:103D9000B0CF9395880F08F09927EE0F97958795E8
:103DA00008950E94B41F08F481E008950E94EA1E5D
:103DB0000C94EF1F0E94E81F58F00E94E11F40F092
:103DC00029F45F3F29F00C94D81F51110C94232043
:103DD0000C94DE1F0E94002068F39923B1F3552351
:103DE00091F3951B550BBB27AA276217730784070E
:103DF00038F09F5F5F4F220F331F441FAA1FA9F3A4
:103E000035D00E2E3AF0E0E832D091505040E69591
:103E1000001CCAF72BD0FE2F29D0660F771F881FF2
:103E2000BB1F261737074807AB07B0E809F0BB0BE5
:103E3000802DBF01FF2793585F4F3AF09E3F5105F9
:103E400078F00C94D81F0C9423205F3FE4F3983E45
:103E5000D4F3869577956795B795F7959F5FC9F7E2
:103E6000880F911D9695879597F90895E1E0660F63
:103E7000771F881FBB1F621773078407BA0720F0DC
:103E8000621B730B840BBA0BEE1F88F7E095089545
:103E90000E94082088F09F5798F0B92F9927B751B2
:103EA000B0F0E1F0660F771F881F991F1AF0BA95DE
:103EB000C9F714C0B13091F00E942220B1E00895FA
:103EC0000C942220672F782F8827B85F39F0B93FEC
:103ED000CCF3869577956795B395D9F73EF4909591
:103EE0008095709561957F4F8F4F9F4F0895E8940F
:103EF00009C097FB3EF490958095709561957F4F32
:103F00008F4F9F4F9923A9F0F92F96E9BB279395DF
:103F1000F695879577956795B795F111F8CFFAF4EF
:103F2000BB0F11F460FF1BC06F5F7F4F8F4F9F4F20
:103F300016C0882311F096E911C0772321F09EE87E
:103F4000872F762F05C0662371F096E8862F70E0E4
:103F500060E02AF09A95660F771F881FDAF7880FBE
:103F60009695879597F90895990F0008550FAA0B14
:103F7000E0E8FEEF16161706E807F907C0F012167C
:103F80001306E407F50798F0621B730B840B950B7F
:103F900039F40A2661F0232B242B252B21F40895D4
:103FA0000A2609F4A140A6958FEF811D811D089571
:103FB00097F99F6780E870E060E008959FEF80ECDC
:103FC000089500240A94161617061806090608957F
:103FD00000240A9412161306140605060895092EE5
:103FE0000394000C11F4882352F0BB0F40F4BF2B54
:103FF00011F460FF04C06F5F7F4F8F4F9F4F089594
:1040000057FD9058440F551F59F05F3F71F0479589
:10401000880F97FB991F61F09F3F79F0879508956E
:10402000121613061406551FF2CF4695F1DF08C08D
:10403000161617061806991FF1CF869571056105AA
:1040400008940895E894BB2766277727CB0197F952
:1040500008950E943C200C94EF1F0E94E11F38F04D
:104060000E94E81F20F0952311F00C94D81F0C94A7
:10407000DE1F11240C9423200E94002070F3959FD2
:10408000C1F3950F50E0551F629FF001729FBB274F
:10409000F00DB11D639FAA27F00DB11DAA1F649FEB
:1040A0006627B00DA11D661F829F2227B00DA11D9E
:1040B000621F739FB00DA11D621F839FA00D611D24
:1040C000221F749F3327A00D611D231F849F600D45
:1040D000211D822F762F6A2F11249F5750409AF06E
:1040E000F1F088234AF0EE0FFF1FBB1F661F771FFA
:1040F000881F91505040A9F79E3F510580F00C94C5
:10410000D81F0C9423205F3FE4F3983ED4F38695A8
:1041100077956795B795F795E7959F5FC1F7FE2B64
:10412000880F911D9695879597F9089597FB072E0F
:1041300016F4009407D077FD09D00E94F62007FC02
:1041400005D03EF4909581959F4F089570956195A7
:104150007F4F0895A1E21A2EAA1BBB1BFD010DC0C3
:10416000AA1FBB1FEE1FFF1FA217B307E407F50727
:1041700020F0A21BB30BE40BF50B661F771F881F03
:10418000991F1A9469F760957095809590959B0199
:10419000AC01BD01CF010895EE0FFF1F0590F49112
:1041A000E02D0994A29FB001B39FC001A39F700DA1
:1041B000811D1124911DB29F700D811D1124911D2F
:1041C00008950024A7FD00942A0F301D401D501DA6
:1041D000601D701D801D901D08952A153B054C051E
:1041E0005D056E057F05800791070895AA1BBB1B1F
:1041F00051E107C0AA1FBB1FA617B70710F0A61BE7
:10420000B70B881F991F5A95A9F780959095BC0107
:08421000CD010895F894FFCFE1
:10421800456E74657220416D6F756E7400020504F9
:10422800110204373839783435362D3132332B3092
:104238002E3D2B03040506000102130504070206A0
:104248000003020501010206010102070101020241
:10425800000102030001020400010305000100013E
:104268000100000201000003010000040100000534
:10427800010000060100000701000302010003031A
:104288000100030401000102000003070101030605
:104298000101050643757272656E742054656D7070
:1042A8002069733A00202020272D2720546F2045AD
:1042B80078697400202000202020204578636565F7
:1042C800646564002020204D617820416D6F756E13
:1042D80074002050726F63657373696E672E2E2E9B
:1042E8002E002020506C6561736520576169740049
:1042F80020202020202046756E64002020496E73FF
:10430800756666696369656E740020205472616E13
:1043180073616374696F6E00202020537563636551
:10432800737366756C002020596F75722042616C3A
:10433800616E636500322E446973706C6179205434
:10434800656D7000312E496E736572742043617219
:10435800640020496E636F72726563742050494E21
:1043680000437573746F6D65722053657276696367
:104378006500506C6561736520436F6E746163748A
:104388000020202054727920416761696E00456ED3
:1043980074657220596F75722050494E00696E20FD
:1043A80074686520446174616261736500596F7552
:1043B800722043617264206973206E6F740020203C
:1043C8002020437573746F6D65720020202020577C
:1043D800656C636F6D6500202050726573732042B1
:1043E8007574746F6E0057616974696E6720666FC3
:1043F80072204361726400526563656976696E670D
:10440800204461746100427574746F6E2050726547
:10441800737365640050726F6772616D6D656400D7
:104428002A2A2A2A2A4C4F434B45442A2A2A2A2A2E
:10443800002A2A2A2A2A2A41544D2A2A2A2A2A2A9A
:104448002A000A50726F6772616D6D696E67204D40
:104458006F64650D000A55534552204D6F64650D14
:10446800000A596F757220496E7075743A20000AF7
:10447800496E76616C69642043686F6963652C20B6
:104488004F6E6C792043686F6F73652066726F6D2D
:10449800203120746F20330D000A4D617820416D62
:1044A8006F756E743A20000A496E76616C696420F3
:1044B80042616C616E63652C2042616C616E63655C
:1044C8002073686F756C6420626520696E20287897
:1044D8007878782E78782920666F726D61740D0A65
:1044E800000A50414E3A20000A496E76616C6964B0
:1044F8002050414E2C2050414E2073686F756C64DB
:104508002062652039206E756D6572696320636865
:1045180061726163746572730D000A42616C616E49
:1045280063653A2000546869732050414E206973CE
:1045380020616C726561647920657869737465645B
:1045480020696E207468652044617461204261733B
:10455800650D0A446F20796F752077697368207438
:104568006F207570646174652069743F28792F6EB7
:10457800293A2000546869732050414E20697320FD
:104588006E6F74206578697374656420696E207431
:104598006865204461746120426173650D0A446F47
:1045A80020796F75207769736820746F206164645F
:1045B800206E65773F28792F6E293A20000A4154EA
:1045C8004D2050494E3A2000496E636F7272656300
:1045D800742050494E0D0A506C65617365207265F0
:1045E8006163682074686520436F6D70616E790D32
:1045F8000A000A496E636F72726563742050494EEF
:104608000D000A4C6F6164696E672E2E2E0D000A2C
:10461800312E416464204E657720437573746F6D45
:1046280065720A0D322E557064617465204578698B
:104638007374696E6720437573746F6D65720A0DC4
:10464800332E557064617465204D617820416D6F1B
:10465800756E740A0D342E457869740D000A44612C
:104668007461204261736520697320656D70747987
:104678002C20796F75206D75737420726567697366
:10468800746572206174206C65617374206F6E6547
:1046980020637573746F6D65720D000A496E7661DB
:1046A8006C696420496E70757421000A41544D206C
:1046B80069732042757379204E6F772C2050726F82
:1046C8006772616D6D696E67204D6F6465207769EB
:1046D8006C6C2073746172742061667465722063F7
:1046E800757272656E742050726F636573730D0016
:1046F80041544D205465726D696E616C0D004C6FAC
:104708006164696E672E2E00383532300041444DA1
:0E471800494E00000E0F640000030010000068
:00000001FF
